:100000000C9462000C948A000C948A000C948A0070
:100010000C948A000C948A000C948A000C948A0038
:100020000C948A000C948A000C948A000C948A0028
:100030000C948A000C948A000C948A000C948A0018
:100040000C94110B0C948A000C945F070C94A60777
:100050000C948A000C948A000C948A000C948A00F8
:100060000C948A000C948A000000000024002700F1
:100070002A0000000000250028002B0000000000DE
:1000800023002600290004040404040404040202DA
:100090000202020203030303030301020408102007
:1000A0004080010204081020010204081020000012
:1000B0000007000201000003040600000000000029
:1000C00000001D0911241FBECFEFD8E0DEBFCDBF59
:1000D00011E0A0E0B1E0E4E8FAE102C005900D9281
:1000E000A63CB107D9F712E0A6ECB1E001C01D9221
:1000F000AE3FB107E1F710E0C4ECD0E004C02297B6
:10010000FE010E943C0DC23CD107C9F70E94020BC0
:100110000C94400D0C9400007F928F929F92AF92AE
:10012000BF92CF92DF92EF92FF920F931F93CF93E4
:10013000DF93BEE3EB2EB2E0FB2E0EEE11E0EAEC15
:10014000F1E0A0E0CA2EA1E0DA2EC6EDD1E020E079
:1001500030E040E050E071E0872E912CAA24AA9470
:10016000BA2C64E1762ED7016D917C9177FF09C09E
:10017000B982A88288279927861B970B9183808351
:1001800004C0998288827183608360817181D60105
:100190008C9190E0DC01A69FC001A79F900DB69FB7
:1001A000900D1124A0E0B0E0281739074A075B073B
:1001B00010F49C01AD016832710528F476956795BD
:1001C000D8016C9302C0D8017C9282E090E0E80EE6
:1001D000F91E0F5F1F4F32960894C11CD11C229646
:1001E0009AE4E91692E0F90609F0BDCF2093C60122
:1001F0003093C7014093C8015093C90160913D02FB
:1002000070E080E090E00E94B70C6B017C0100E0A0
:1002100010E0C0E0D0E088ECA82EB12CFE01E6533F
:10022000FE4F2081318121153105D1F00F5F1F4F25
:1002300040E050E0C701B6010E94E90CC901FE018F
:10024000EE51FE4F31832083FE01EC50FE4FB18210
:10025000A082FE01E050FE4F88539F4F9183808320
:100260002296CC30D105D1F60E94670B24E630E00F
:1002700040E050E00E94E90C20931C0230931D02E4
:1002800040931E0250931F021092250210922402E6
:10029000C801DF91CF911F910F91FF90EF90DF90F8
:1002A000CF90BF90AF909F908F907F9008954F9286
:1002B0005F926F927F928F929F92AF92BF92CF92F6
:1002C000DF92EF92FF920F931F93CF93DF930E94E1
:1002D000670B24E630E040E050E00E94E90C790131
:1002E0008A01E0922002F0922102009322021093F0
:1002F000230280911C0290911D02A0911E02B091D8
:100300001F02E816F9060A071B0730F4809590953E
:100310000196820F931F03C0281B390BC9019093CC
:10032000250280932402E0921C02F0921D020093A9
:100330001E0210931F02209124023091250240E0FA
:1003400050E08091180290911902A0911A02B09188
:100350001B02820F931FA41FB51F80931802909356
:100360001902A0931A02B0931B027AEC872E71E057
:10037000972E60E0E62E62E0F62E54EF652E51E0F7
:10038000752E4CE0A42E42E0B42E44245524C0E047
:10039000D0E0CC24DD24D4018D919C91892B09F4EB
:1003A000BDC00894411C511CF701808191812091AE
:1003B000240230912502821B930B9183808397FF47
:1003C000ADC0C530D10509F0CCC08091E00190915D
:1003D000E10197FFC6C08CE00E94640C892B09F0F4
:1003E000C0C01092D5011092D401A9C0F601EA5FF5
:1003F000FE4FD5012D913C91808191818217930709
:10040000ACF40DC057FF12C0F601EE5EFE4FD501F1
:100410002D913C9180819181281739073CF4CC0FB4
:10042000DD1FC653DE4F1982188289C0F401808116
:100430009181019791838083D501ED91FC91119772
:10044000E40FF51FED93FC93E770F070E25EFE4F52
:100450000081602F617084E00E94100C10E01595FF
:100460000795602F617085E00E94100C1595079527
:10047000602F617086E00E94100C15950795017041
:1004800087E0602F0E94100CFE01E1706E2F88E063
:100490000E94100CBE0175956795617089E00E94FD
:1004A000100CBE01759567957595679561708AE02A
:1004B0000E94100C8BE060E00E94100C8BE061E069
:1004C0000E94100CF601EE51FE4FD7014D915C9148
:1004D000119780819181480F591F4D935C93FE01C4
:1004E000E251FE4F808190E0F40120813181D301FF
:1004F0006D917C9111972817390718F4CB010A9652
:1005000006C06115710551F0CB010A97D3018D9397
:100510009C93480F591FF70151834083219622E095
:1005200030E0820E931EC20ED31EE20EF31E620E48
:10053000731EA20EB31EC630D10509F02CCFC20126
:10054000DF91CF911F910F91FF90EF90DF90CF90AF
:10055000BF90AF909F908F907F906F905F904F90E3
:100560000895F601EA52FE4F408151811416150696
:100570000CF43CCF47CF0F931F9381E10E94C80B2F
:100580008C0183E00E94640C0050124094F420918E
:10059000D4013091D5012115310519F481E090E0A5
:1005A00013C08091E0019091E101019709F046C0EC
:1005B00038C0892B51F52091D4013091D5012115F6
:1005C000310541F58FEF9FEF9093E1018093E001BA
:1005D00082E090E09093D5018093D4011092F301D2
:1005E0008091050190E0880F991F880F991F9093C3
:1005F000ED018093EC0188EC90E09093FF018093F3
:10060000FE0110920B0210920A02EAECF1E020E0E7
:1006100030E01BC08091E0019091E1018F5F9F4F1E
:1006200069F42431310588F7C90101969093D50109
:100630008093D40181508093F301E7CF2150304063
:100640003093D5012093D401E0CF80819181892B13
:1006500011F02F5F3F4F329681E0E63DF807A9F792
:10066000C9011F910F9108956F927F928F929F926F
:10067000AF92BF92CF92DF92EF92FF920F931F93B0
:100680000E94590B7B018C018091260290912702D8
:10069000A0912802B0912902A8019701281B390BCB
:1006A0004A0B5B0B8091590190915A01A0915B011B
:1006B000B0915C0182179307A407B50708F026C123
:1006C000E0922602F092270200932802109329025A
:1006D00086ED92E066E271E00E94A30A8EE00E943D
:1006E000C80B00D000D0AA2797FDA095BA2FF3E041
:1006F0006F2E712C812C912CEDB7FEB76182728226
:1007000083829482BC01CD0120E030E040E050E0E3
:10071000EFEFEE2EE3E0FE2E012D112DBDEFAB2EFF
:10072000BFEFBB2EBFEFCB2EBFEFDB2E0E94B90A6F
:10073000AB01BC010F900F900F900F9086ED92E0EF
:100740002AE030E00E94500A86ED92E06EE271E00D
:100750000E94A30A8FE00E94C80B00D000D0AA27F5
:1007600097FDA095BA2FEDB7FEB7618272828382A2
:100770009482BC01CD0120E030E040E050E00E94D6
:10078000B90AAB01BC010F900F900F900F9086ED4E
:1007900092E02AE030E00E94500A86ED92E065E3A4
:1007A00071E00E94A30A80E10E94C80B00D000D033
:1007B000AA2797FDA095BA2F25E030E040E050E051
:1007C000EDB7FEB72183328343835483BC01CD014F
:1007D0002EE531E040E050E0A6EBEA2EA3E0FA2E51
:1007E000012D112DAA24BB2465010E94B90AAB0179
:1007F000BC010F900F900F900F9086ED92E02AE0D1
:1008000030E00E94500A86ED92E06CE371E00E94B5
:10081000A30A82E00E94640CBC0186ED92E04AE0EB
:1008200050E00E94900A86ED92E062E471E00E943E
:10083000A30A83E00E94640CBC0186ED92E04AE0CA
:1008400050E00E94900A86ED92E068E471E00E9418
:10085000A30A81E10E94C80B00D000D0AA2797FD0F
:10086000A095BA2FF1E06F2E712C812C912CEDB751
:10087000FEB76182728283829482BC01CD0120E046
:1008800030E040E050E0EFEFEE2EE3E0FE2E012DF1
:10089000112D0E94B90AAB01BC010F900F900F906F
:1008A0000F9086ED92E02AE030E00E94500A86ED3B
:1008B00092E06EE471E00E94A30A82E10E94C80BFC
:1008C00000D000D0AA2797FDA095BA2FEDB7FEB7AC
:1008D0006182728283829482BC01CD0120E030E08B
:1008E00040E050E00E94B90AAB01BC010F900F90AC
:1008F0000F900F9086ED92E02AE030E00E94500ABF
:1009000086ED92E065E571E00E94A60A1F910F91C5
:10091000FF90EF90DF90CF90BF90AF909F908F901F
:100920007F906F900895AF92BF92CF92DF92EF9237
:10093000FF920F931F93CF93DF9386ED92E06DE5C7
:1009400071E00E94A30A86ED92E060913D024AE0C8
:1009500050E00E943E0ACCE0D2E086ED92E060E6F4
:1009600071E00E94A30A6991799186ED92E04AE0D4
:1009700050E00E94900A82E0C831D80771F786EDF6
:1009800092E062E671E00E94A30A60914A027091CF
:100990004B0286ED92E04AE050E00E94900A00E0AF
:1009A00010E086ED92E060E671E00E94A30AF80193
:1009B000EA52FE4FD801A653BE4F208131818D915E
:1009C0009C91289FB001299F700D389F700D1124B4
:1009D00086ED92E04AE050E00E94900A0E5F1F4FC1
:1009E0000C301105F1F686ED92E068E671E00E94A8
:1009F000A30A60914C0270914D0286ED92E04AE0AC
:100A000050E00E94900A86ED92E06EE671E00E944E
:100A1000A30A8EE00E94C80BBC0186ED92E04AE07A
:100A200050E00E94900A86ED92E065E771E00E9436
:100A3000A30A8FE00E94C80BBC0186ED92E04AE059
:100A400050E00E94900A86ED92E06CE771E00E940F
:100A5000A30A80E10E94C80B00D000D0AA2797FD0E
:100A6000A095BA2F25E030E040E050E0EDB7FEB7AA
:100A70002183328343835483BC01CD012EE531E0D1
:100A800040E050E0E6EBEE2EE3E0FE2E012D112DCE
:100A9000AA24BB2465010E94B90AAB01BC010F90D6
:100AA0000F900F900F9086ED92E02AE030E00E94C8
:100AB000500A86ED92E063E871E00E94A30A82E0AA
:100AC0000E94640CBC0186ED92E04AE050E00E9476
:100AD000900A86ED92E069E871E00E94A30A83E043
:100AE0000E94640CBC0186ED92E04AE050E00E9456
:100AF000900A86ED92E06FE871E00E94A30A81E11E
:100B00000E94C80BBC0186ED92E04AE050E00E94D2
:100B1000900A86ED92E065E971E00E94A30A82E105
:100B20000E94C80BBC0186ED92E04AE050E00E94B2
:100B3000900A86ED92E06CE971E00E94A60ADF91CE
:100B4000CF911F910F91FF90EF90DF90CF90BF90CA
:100B5000AF9008951F9386ED92E00E947508892B4F
:100B6000C1F180912A02882319F0813071F531C0DA
:100B700010913B0286ED92E00E94A608E12FF0E082
:100B8000E55DFD4F80831F5F10933B021130A9F498
:100B900080912B02833559F0863519F08A3451F44F
:100BA00002C08EE001C082E080933C0206C0109338
:100BB0003C0203C08FEF80932A0280913C021817F9
:100BC00040F081E080932A0204C086ED92E00E940A
:100BD000A6081F91089580912A02813009F0FAC079
:100BE00080912B02833509F4E9C0863521F08A34DF
:100BF00009F0EDC0DCC090912C029F7080E1891B50
:100C000080933D0290912D0280E020912E0230E0F1
:100C1000822B932B90933F0280933E0290912F0260
:100C200080E02091300230E0822B932B90934102A0
:100C3000809340029091310280E02091320230E0B6
:100C4000822B932B90934302809342029091330224
:100C500080E02091340230E0822B932B9093450268
:100C6000809344029091350280E02091360230E07A
:100C7000822B932B909347028093460290913702E8
:100C800080E02091380230E0822B932B9093490230
:100C90008093480286ED92E06DE971E00E94A30A1C
:100CA00086ED92E060912B024AE050E00E943E0AFD
:100CB00086ED92E067EA71E00E94A30A86ED92E079
:100CC00060913D024AE050E00E943E0A86ED92E0CB
:100CD00067EA71E00E94A30A60913E0270913F02B0
:100CE00086ED92E04AE050E00E94900A86ED92E0A4
:100CF00067EA71E00E94A30A60914002709141028C
:100D000086ED92E04AE050E00E94900A86ED92E083
:100D100067EA71E00E94A30A609142027091430267
:100D200086ED92E04AE050E00E94900A86ED92E063
:100D300067EA71E00E94A30A609144027091450243
:100D400086ED92E04AE050E00E94900A86ED92E043
:100D500067EA71E00E94A30A60914602709147021F
:100D600086ED92E04AE050E00E94900A86ED92E023
:100D700067EA71E00E94A30A6091480270914902FB
:100D800086ED92E04AE050E00E94900A86ED92E003
:100D90000E94970910923B0210923C0210922A0284
:100DA0000E948C0090934B0280934A0213C0809162
:100DB0002C0280934C0210924D0202C00E949304B8
:100DC00010923B0210923C0210922A0203C08FEF55
:100DD00080932A0280912A028F3FD1F486ED92E01F
:100DE0006AEA71E00E94A30A86ED92E060912B020C
:100DF0004AE050E00E943E0A86ED92E062EB71E02C
:100E00000E94A60A10923B0210923C0210922A0203
:100E100080914A0290914B021816190634F40E94F0
:100E2000570190934B0280934A0280914C0290911B
:100E30004D02892B31F00E94BB0290934B028093AC
:100E40004A02089586ED92E040E855E260E070E0E5
:100E50000E94EF0784E061E00E94EA0B85E061E018
:100E60000E94EA0B86E061E00E94EA0B87E061E005
:100E70000E94EA0B88E061E00E94EA0B89E061E0F1
:100E80000E94EA0B8AE061E00E94EA0B8BE061E0DD
:100E90000E94EA0B8BE061E00E94100C8CE060E0A5
:100EA0000E94EA0B8DE060E00E94EA0B82E060E0C5
:100EB0000E94EA0B83E060E00E94EA0B08951F9213
:100EC0000F920FB60F9211242F933F934F938F934E
:100ED0009F93EF93FF934091C60020918E02309133
:100EE0008F022F5F3F4F2F7330708091900290914F
:100EF00091022817390759F0E0918E02F0918F0284
:100F0000E25BFD4F408330938F0220938E02FF916E
:100F1000EF919F918F914F913F912F910F900FBE25
:100F20000F901F901895E091E202F091E302E05CCF
:100F3000FF4F8191919120813181821B930B8F739F
:100F40009070892B11F00E94AA0508951F920F92AC
:100F50000FB60F9211242F933F934F935F936F938C
:100F60007F938F939F93AF93BF93EF93FF932091C2
:100F7000D2023091D3028091D4029091D5022817E9
:100F8000390731F48091C1008F7D8093C10016C074
:100F9000E091D402F091D502EE56FD4F4081809150
:100FA000D4029091D502019660E470E00E94D60CC4
:100FB0009093D5028093D4024093C600FF91EF91A5
:100FC000BF91AF919F918F917F916F915F914F9161
:100FD0003F912F910F900FBE0F901F901895AF92D9
:100FE000BF92DF92EF92FF920F931F93CF93DF9305
:100FF000EC017A018B01DD24403081EE580780E05E
:10100000680780E0780711F0DD24D39491E0A92EE1
:10101000B12CEC89FD89DD2069F0C5010E8C02C080
:10102000880F991F0A94E2F7808360E079E08DE3EE
:1010300090E005C0108260E874E88EE190E0A801BD
:1010400097010E94E90C2150304040405040569595
:1010500047953795279580E12030380720F0DD202F
:1010600011F0DD24D6CFE889F9893083EA89FB893C
:101070002083EE89FF89408121E030E0C9010A8C9C
:1010800002C0880F991F0A94E2F7482B4083EE892B
:10109000FF894081C9010B8C02C0880F991F0A94F7
:1010A000E2F7482B4083EE89FF894081C9010C8C0F
:1010B00002C0880F991F0A94E2F7482B4083EE89FB
:1010C000FF8980810D8C02C0220F331F0A94E2F742
:1010D000209528232083DF91CF911F910F91FF90BE
:1010E000EF90DF90BF90AF900895DC011C96ED91DA
:1010F000FC911D97E05CFF4F21913191808191819E
:10110000281B390B2F733070C9010895DC011C9620
:10111000ED91FC911D97E05CFF4F20813181E054FF
:10112000F040DF01AE5BBF4F8D919C911197281766
:10113000390719F42FEF3FEF07C08D919C91E80F0D
:10114000F91F8081282F30E0C9010895DC011C9629
:10115000ED91FC911D97E05CFF4F20813181E054BF
:10116000F040DF01AE5BBF4F8D919C911197281726
:10117000390719F42FEF3FEF10C08D919C91119713
:10118000E80FF91F20818D919C91119701968F7323
:10119000907011969C938E9330E0C9010895FC01E4
:1011A00086859785DC01A05CBF4FFC01EE5BFF4F9D
:1011B0002D913C9111978081918128173907C1F7B2
:1011C0000895CF93DF93EC01462FEE85FF85E05C19
:1011D000FF4F80819181E054F040019660E470E01F
:1011E0000E94D60C9C01DF01AE5BBF4F8D919C919C
:1011F000119728173907D1F3E05CFF4F8081918167
:10120000E054F040E80FF91F4083EE85FF85E05C75
:10121000FF4F31832083EE89FF89208181E090E0B8
:101220000D8C02C0880F991F0A94E2F7282B2083A7
:1012300081E090E0DF91CF9108951092D902109251
:10124000D80288EE93E0A0E0B0E08093DA029093B9
:10125000DB02A093DC02B093DD0289EB91E0909376
:10126000D7028093D6028EE492E09093E3028093BB
:10127000E20282E992E09093E5028093E40285EC39
:1012800090E09093E7028093E60284EC90E09093E4
:10129000E9028093E80280EC90E09093EB02809367
:1012A000EA0281EC90E09093ED028093EC0286ECF0
:1012B00090E09093EF028093EE0284E08093F0023E
:1012C00083E08093F10287E08093F20285E08093CF
:1012D000F30281E08093F4020895CF92DF92EF92BF
:1012E000FF920F931F93CF93DF937C016B018A01D1
:1012F000C0E0D0E00FC0D6016D916D01D701ED9136
:10130000FC910190F081E02DC7010995C80FD91F0C
:10131000015010400115110571F7CE01DF91CF91F9
:101320001F910F91FF90EF90DF90CF900895EF9273
:10133000FF920F931F938C01DC01ED91FC910190C2
:10134000F081E02D6DE009957C01D801ED91FC91D3
:101350000190F081E02DC8016AE009959C012E0DF5
:101360003F1DC9011F910F91FF90EF900895CF93FA
:10137000DF93DB010D900020E9F71197A61BB70B57
:10138000EC01E881F9810280F381E02DAD0109953E
:10139000DF91CF9108954F925F927F928F929F92AB
:1013A000AF92BF92CF92DF92EF92FF920F931F9373
:1013B000DF93CF93CDB7DEB7A1970FB6F894DEBF1A
:1013C0000FBECDBF2C01742ECB01223008F42AE0D1
:1013D00019A231E2C32ED12CCC0EDD1E822E99240F
:1013E000AA24BB24672D752FA50194010E94E90C46
:1013F00079018A01C801B701A50194010E94B70CC7
:10140000472D461B0894C108D1084A3014F4405DAA
:1014100001C0495CF6014083E114F10401051105A6
:1014200021F07E2C5F2DC801DDCFC201B6010E94E4
:10143000B709A1960FB6F894DEBF0FBECDBFCF910E
:10144000DF911F910F91FF90EF90DF90CF90BF90B1
:10145000AF909F908F907F905F904F900895DC01A8
:101460002115310541F4ED91FC910190F081E02DC1
:10147000642F099508950E94CB090895EF92FF9279
:101480000F931F939A01E62EFF2400E010E0B801AD
:10149000A7010E942F0A1F910F91FF90EF900895CE
:1014A000CF92DF92EF92FF920F931F93CF93DF9330
:1014B000EC016A017B012115310541F4E881F981D4
:1014C0000190F081E02D642F09951FC02A3031056D
:1014D000D1F477FF17C0E881F9810190F081E02D08
:1014E0006DE209958C0144275527BA014C195D0915
:1014F0006E097F09CE012AE00E94CB099801280FCE
:10150000391F04C02AE00E94CB099C01C901DF9168
:10151000CF911F910F91FF90EF90DF90CF900895A2
:10152000EF92FF920F931F937B019A010027F7FC24
:101530000095102FB801A7010E94500A1F910F912A
:10154000FF90EF9008950E94B7090895EF92FF92DF
:101550000F931F937C010E94B7098C01C7010E9461
:101560009709080F191FC8011F910F91FF90EF9065
:1015700008952F923F924F925F926F927F928F9237
:101580009F92AF92BF92CF92DF92EF92FF920F9312
:101590001F93DF93CF93CDB7DEB73B014C01190109
:1015A0002A016D897E898F89988D6A197B098C093A
:1015B0009D09621A730A840A950AA40193010E9484
:1015C000B70CE218F30804091509A80197010E9455
:1015D0000B0D2A0D3B1D4C1D5D1DB901CA01CF919C
:1015E000DF911F910F91FF90EF90DF90CF90BF9010
:1015F000AF909F908F907F906F905F904F903F90B3
:101600002F900895CF93DF930E948D0B0E942207A5
:10161000C3E9D7E00E94EB052097E1F30E9493070E
:10162000F9CF1F920F920FB60F9211242F933F9371
:101630008F939F93AF93BF938091F9029091FA0299
:10164000A091FB02B091FC023091FD020196A11D18
:10165000B11D232F2D5F2D3720F02D570196A11D91
:10166000B11D2093FD028093F9029093FA02A0939A
:10167000FB02B093FC028091F5029091F602A091DA
:10168000F702B091F8020196A11DB11D8093F502F9
:101690009093F602A093F702B093F802BF91AF9136
:1016A0009F918F913F912F910F900FBE0F901F90A0
:1016B00018958FB7F8942091F9023091FA02409171
:1016C000FB025091FC028FBFB901CA0108959FB778
:1016D000F8942091F5023091F6024091F702509172
:1016E000F80286B5A89B06C08F3F21F02F5F3F4FC1
:1016F0004F4F5F4F9FBF542F432F322F2227280F6A
:10170000311D411D511D82E0220F331F441F551F03
:101710008A95D1F7B901CA010895789484B5826099
:1017200084BD84B5816084BD85B5826085BD85B585
:10173000816085BDEEE6F0E0808181608083E1E834
:10174000F0E010828081826080838081816080836C
:10175000E0E8F0E0808181608083E1EBF0E080816F
:1017600084608083E0EBF0E0808181608083EAE741
:10177000F0E08081846080838081826080838081CA
:10178000816080838081806880831092C100089589
:10179000982F8E3008F09E5097708091B4018295FA
:1017A000880F880F807C892B80937C0080917A0041
:1017B000806480937A0080917A0086FDFCCF20912E
:1017C000780040917900942F80E030E0282B392B6D
:1017D000C9010895482F50E0CA0186569F4FFC0169
:1017E00024914A575F4FFA0184918823C1F0E82F72
:1017F000F0E0EE0FFF1FE859FF4FA591B49166236B
:1018000041F49FB7F8948C91209582238C939FBFCD
:1018100008959FB7F8948C91822B8C939FBF089565
:10182000482F50E0CA0182559F4FFC012491CA0104
:1018300086569F4FFC0194914A575F4FFA013491AD
:10184000332309F440C0222351F1233071F02430B6
:1018500028F42130A1F0223011F514C02630B1F067
:101860002730C1F02430D9F404C0809180008F77F4
:1018700003C0809180008F7D8093800010C084B56C
:101880008F7702C084B58F7D84BD09C08091B00080
:101890008F7703C08091B0008F7D8093B000E32FDD
:1018A000F0E0EE0FFF1FEE58FF4FA591B4912FB758
:1018B000F894662321F48C919095892302C08C9131
:1018C000892B8C932FBF0895682F70E0CB01825530
:1018D0009F4FFC012491CB0186569F4FFC01449100
:1018E0006A577F4FFB019491992319F420E030E06F
:1018F0003CC0222351F1233071F0243028F42130F0
:10190000A1F0223011F514C02630B1F02730C1F01B
:101910002430D9F404C0809180008F7703C0809177
:1019200080008F7D8093800010C084B58F7702C0C7
:1019300084B58F7D84BD09C08091B0008F7703C0CE
:101940008091B0008F7D8093B000892F90E0880F48
:10195000991F84589F4FFC01A591B4918C9120E070
:1019600030E0842311F021E030E0C9010895629F46
:10197000D001739FF001829FE00DF11D649FE00D87
:10198000F11D929FF00D839FF00D749FF00D659FE8
:10199000F00D9927729FB00DE11DF91F639FB00DE7
:1019A000E11DF91FBD01CF011124089597FB092EF8
:1019B00007260AD077FD04D049D006D000201AF4BB
:1019C000709561957F4F0895F6F7909581959F4F9B
:1019D0000895A1E21A2EAA1BBB1BFD010DC0AA1F70
:1019E000BB1FEE1FFF1FA217B307E407F50720F088
:1019F000A21BB30BE40BF50B661F771F881F991F03
:101A00001A9469F760957095809590959B01AC014B
:101A1000BD01CF01089597FB092E05260ED057FD75
:101A200004D0D7DF0AD0001C38F45095409530958B
:101A300021953F4F4F4F5F4F0895F6F79095809552
:101A4000709561957F4F8F4F9F4F0895AA1BBB1BC9
:101A500051E107C0AA1FBB1FA617B70710F0A61BAE
:101A6000B70B881F991F5A95A9F780959095BC01CF
:101A7000CD010895EE0FFF1F0590F491E02D09941C
:041A8000F894FFCF08
:101A8400181E282020100F270F270F270F270F2796
:101A94000F27F1D8F1D8F1D8F1D8F1D8F1D805044D
:101AA40006020A0809012A2A204C2F523A002C2047
:101AB400462F423A002C204861743A002C2054727C
:101AC4003A002C204C743A002C2052743A002C20FA
:101AD400426F743A00202A2A00F4010000412000D9
:101AE4002C00207C20442000207C204A20003A2026
:101AF4004C2F523A002C20462F423A002C204861A9
:101B0400743A002C2054723A002C204C743A002C65
:101B14002052743A002C20426F743A000020476F20
:101B24007420636D643A002C2000204572723A20C0
:101B34005B005D000100000000E1086D097508A666
:061B4400088608CF08002E
:00000001FF
